:020000040000FA
:020000000328D3
:040002000034003492
:0A00060007309F000313831600303B
:10001000860083124B30A0004130A1005230A20074
:100020004530A3004E30A4004930B0005630B10036
:100030004530B2005430B3004830B4005030C000F6
:100040004C30C1004130C2005430C3004130C400C4
:100050004830D0004530D1005230D2004E30D3006D
:100060004130D4004E30D5004430D6004530D70062
:100070005A30D8000530E0000530E1000530E200DC
:100080000930E300E4016008E4076108E40762085E
:08009000E4076308E4070A28F5
:02400E00193F58
:00000001FF
